:04000000EFEF00F02E
:100008000182FACF36F0FBCF37F0D9CF38F0DACF0C
:1000180039F0F3CF3AF0F4CF3BF0F6CF3CF0F7CF1E
:100028003DF0F8CF3EF0F5CF3FF00E01BDA91FEF30
:1000380000F021EF00F02CEF00F0C5A926EF00F04A
:1000480028EF00F02CEF00F010EC91F0D9EF00F061
:10005800F2AC31EF00F033EF00F0D9EF00F0BDABB8
:1000680038EF00F03AEF00F045EF00F0C5AB3FEF96
:1000780000F041EF00F045EF00F03AEC8FF0D9EFD7
:1000880000F0C1A54AEF00F04CEF00F057EF00F088
:10009800C9A551EF00F053EF00F057EF00F047EC1F
:1000A8008EF0D9EF00F0C3A35CEF00F05EEF00F034
:1000B80069EF00F0CBA363EF00F065EF00F069EFA4
:1000C80000F0F3EC8BF0D9EF00F0BFA16EEF00F079
:1000D80070EF00F07BEF00F0C7A175EF00F077EF4D
:1000E80000F07BEF00F09EEC91F0D9EF00F0C1A991
:1000F80080EF00F082EF00F08DEF00F0C9A987EFE4
:1001080000F089EF00F08DEF00F023EC8EF0D9EFCE
:1001180000F0C1A192EF00F094EF00F09FEF00F023
:10012800C9A199EF00F09BEF00F09FEF00F08EEC73
:100138008EF0D9EF00F0C0A9A4EF00F0A6EF00F010
:10014800BDEF00F0C8A9ABEF00F0ADEF00F0BDEFD8
:1001580000F002D8BBEF00F00500FA6E0001EE5186
:10016800FD6EEF51FE6EF051FF6EFA501200D9EF9E
:1001780000F0C0ABC2EF00F0C4EF00F0D9EF00F020
:10018800C8ABC9EF00F0CBEF00F0D9EF00F002D810
:10019800D9EF00F00500FA6E0001EB51FD6EEC514D
:1001A800FE6EED51FF6EFA5012003FC0F5FF3EC0E3
:1001B800F8FF3DC0F7FF3CC0F6FF3BC0F4FF3AC074
:1001C800F3FF39C0DAFF38C0D9FF37C0FBFF36C0AC
:0A01D800FAFF0192110034EF8DF0E0
:10FEFA00005A1801000000502001C01A0100000039
:10FF0A000A220100000000000000000000000000BA
:10FF1A0000000000000000000000000000000000D7
:10FF2A0000000000000000000000EA2001000000BC
:10FF3A00C82001A62001000000000000B21E010036
:10FF4A000000BE220186220100000000000072218A
:10FF5A0001AC1B01000000F62201000000EA1E01AC
:10FF6A000000009422015C22010000000000000C45
:10FF7A002101101B01000000CC2201000000BA1F61
:10FF8A0001000000A222016A220100000000000014
:10FF9A002E21015E1B01000000DA2201000000ECA4
:10FFAA001F01000000B022017822010000000000B9
:10FFBA0000502101362201000000E8220100000061
:10FFCA001027000020A1070050004465736972657C
:10FFDA006453797374656D537461746500556E6109
:10FFEA00626C6520746F2073746172740030003122
:06FFFA000032003300009C
:020000040001F9
:1000000024B005EF80F007EF80F012EF80F025A01C
:100010000CEF80F00EEF80F012EF80F0249C248E25
:100020000BEF82F025C0CDF00001D890CD33D890F1
:10003000CD33D890CD33CDB120EF80F022EF80F0DA
:1000400040EF81F024A027EF80F029EF80F04AEF05
:1000500080F025B02EEF80F030EF80F04AEF80F096
:1000600024C0CDF0CD3B0F0ECD17CDA13AEF80F0DF
:100070003CEF80F04AEF80F025C0CDF0D890CD3332
:10008000CDB145EF80F047EF80F04AEF80F0248C4F
:100090000BEF82F024A04FEF80F051EF80F077EF6C
:1000A00080F025B056EF80F058EF80F077EF80F0C9
:1000B00024C0CDF0050ECE6FD890CD33CE2F5CEF9F
:1000C00080F0CDA166EF80F068EF80F077EF80F0F0
:1000D00025C0CDF0D890CD33D890CD33CDB173EFCE
:1000E00080F075EF80F077EF80F047EF80F01BEC49
:1000F00086F00009D8B47FEF80F081EF80F085EFC3
:1001000080F0249E248C0BEF82F017EC84F0000921
:10011000D8B48DEF80F08FEF80F094EF80F0249CC6
:10012000248E259C0BEF82F024A099EF80F09BEFAA
:1001300080F0E6EF80F025A0A0EF80F0A2EF80F045
:10014000E6EF80F024C0CDF00001CD3B0F0ECD17BF
:10015000CDA1ADEF80F0AFEF80F0E6EF80F025C0ED
:10016000CDF0CD3B0F0ECD17CDA1B9EF80F0BBEF99
:1001700080F0E6EF80F024C0CDF0060ECE6FD89070
:10018000CD33CE2FBFEF80F0CDB1C9EF80F0CBEFF4
:1001900080F0E6EF80F025C0CDF0060ECE6FD8904F
:1001A000CD33CE2FCFEF80F0CDB1D9EF80F0DBEFA4
:1001B00080F0E6EF80F02582980E446E580E436E74
:1001C00025902490259824980BEF82F024A0EBEF43
:1001D00080F0EDEF80F00BEF82F025A0F2EF80F0E1
:1001E000F4EF80F00BEF82F024C0CDF0050E00019B
:1001F000CE6FD890CD33CE2FF9EF80F0CDA103EFA5
:1002000081F005EF81F00BEF82F025C0CDF0050EF7
:10021000CE6FD890CD33CE2F09EF81F0CDA113EF63
:1002200081F015EF81F00BEF82F024C0CDF0060EC7
:10023000CE6FD890CD33CE2F19EF81F0CDB123EF13
:1002400081F025EF81F00BEF82F025C0CDF0060E96
:10025000CE6FD890CD33CE2F29EF81F0CDB133EFD3
:1002600081F035EF81F00BEF82F02584980E446E1B
:10027000580E436E25902490259A249A0BEF82F015
:1002800025C0CDF0D890CD33D890CD33D890CD3394
:10029000CDA14DEF81F04FEF81F00BEF82F024A064
:1002A00054EF81F056EF81F09AEF81F025A05BEFDB
:1002B00081F05DEF81F09AEF81F024C0CDF0CD3B6D
:1002C0000F0ECD17CDA167EF81F069EF81F079EFC7
:1002D00081F025C0CDF0050ECE6FD890CD33CE2F56
:1002E0006DEF81F0CDB177EF81F079EF81F095EF8F
:1002F00081F024C0CDF0050ECE6FD890CD33CE2F37
:100300007DEF81F0CDA187EF81F089EF81F09AEF49
:1003100081F025C0CDF0CD3B0F0ECD17CDA193EFD1
:1003200081F095EF81F09AEF81F0248E249C259C3A
:10033000B3EF81F01BEC86F00009D8B4A2EF81F096
:10034000A4EF81F0A9EF81F0249E248C259EB3EFC9
:1003500081F01250D8B4AFEF81F0B1EF81F0B3EF7C
:1003600081F0126A248C24A0B8EF81F0BAEF81F0FA
:10037000DBEF81F025A0BFEF81F0C1EF81F0DBEF73
:1003800081F024C0CDF00001CD3B0F0ECD17CDA1E3
:10039000CCEF81F0CEEF81F0DBEF81F025C0CDF026
:1003A000CD3B0F0ECD17CDA1D8EF81F0DAEF81F064
:1003B000DBEF81F0259424A0E0EF81F0E2EF81F003
:1003C0000BEF82F025A0E7EF81F0E9EF81F00BEF72
:1003D00082F024C0CDF0050E0001CE6FD890CD3351
:1003E000CE2FEEEF81F0CDA1F8EF81F0FAEF81F0A2
:1003F0000BEF82F025C0CDF0050ECE6FD890CD3337
:10040000CE2FFEEF81F0CDA108EF82F00AEF82F04F
:100410000BEF82F0259290EC8FF0120024B013EFD6
:1004200082F015EF82F020EF82F025A01AEF82F023
:100430001CEF82F020EF82F0249C248E14EF84F0D5
:1004400025C02FF0D8902F32D8902F32D8902F324D
:100450002FB02DEF82F02FEF82F04BEF83F024A02E
:1004600034EF82F036EF82F057EF82F025B03BEFA9
:1004700082F03DEF82F057EF82F024C02FF02F3A48
:100480000F0E2F162FA047EF82F049EF82F057EFA3
:1004900082F025C02FF0D8902F322FB052EF82F08B
:1004A00054EF82F057EF82F0248C14EF84F024A0F4
:1004B0005CEF82F05EEF82F084EF82F025B063EFB4
:1004C00082F065EF82F084EF82F024C02FF0050EF9
:1004D000306ED8902F32302E69EF82F02FA073EF5C
:1004E00082F075EF82F084EF82F025C02FF0D89073
:1004F0002F32D8902F322FB080EF82F082EF82F02F
:1005000084EF82F054EF82F0A9EC86F00009D8B4B1
:100510008CEF82F08EEF82F092EF82F0249E248C9A
:1005200014EF84F0C5EC84F00009D8B49AEF82F09F
:100530009CEF82F0A1EF82F0249C248E259C14EF86
:1005400084F024A0A6EF82F0A8EF82F0F2EF82F010
:1005500025A0ADEF82F0AFEF82F0F2EF82F024C081
:100560002FF02F3A0F0E2F162FA0B9EF82F0BBEF0E
:1005700082F0F2EF82F025C02FF02F3A0F0E2F16E7
:100580002FA0C5EF82F0C7EF82F0F2EF82F024C017
:100590002FF0060E306ED8902F32302ECBEF82F037
:1005A0002FB0D5EF82F0D7EF82F0F2EF82F025C0C6
:1005B0002FF0060E306ED8902F32302EDBEF82F007
:1005C0002FB0E5EF82F0E7EF82F0F2EF82F02582C4
:1005D000980E446E580E436E2590249025982498CA
:1005E00014EF84F024A0F7EF82F0F9EF82F014EF1B
:1005F00084F025A0FEEF82F000EF83F014EF84F08A
:1006000024C02FF0050E306ED8902F32302E04EF1C
:1006100083F02FA00EEF83F010EF83F014EF84F03F
:1006200025C02FF0050E306ED8902F32302E14EFEB
:1006300083F02FA01EEF83F020EF83F014EF84F0FF
:1006400024C02FF0060E306ED8902F32302E24EFBB
:1006500083F02FB02EEF83F030EF83F014EF84F0AF
:1006600025C02FF0060E306ED8902F32302E34EF8A
:1006700083F02FB03EEF83F040EF83F014EF84F06F
:100680002584980E446E580E436E25902490259A2A
:10069000249A14EF84F025C02FF0D8902F32D890F0
:1006A0002F32D8902F322FA058EF83F05AEF83F0DB
:1006B00014EF84F024A05FEF83F061EF83F0A5EFE7
:1006C00083F025A066EF83F068EF83F0A5EF83F059
:1006D00024C02FF02F3A0F0E2F162FA072EF83F0A9
:1006E00074EF83F084EF83F025C02FF0050E306E99
:1006F000D8902F32302E78EF83F02FB082EF83F036
:1007000084EF83F0A0EF83F024C02FF0050E306E4D
:10071000D8902F32302E88EF83F02FA092EF83F005
:1007200094EF83F0A5EF83F025C02FF02F3A0F0E42
:100730002F162FA09EEF83F0A0EF83F0A5EF83F09C
:10074000248E249C259CBEEF83F0A9EC86F0000942
:10075000D8B4ADEF83F0AFEF83F0B4EF83F0249E15
:10076000248C259EBEEF83F01250D8B4BAEF83F0EC
:10077000BCEF83F0BEEF83F0126A248C24A0C3EF99
:1007800083F0C5EF83F0E5EF83F025A0CAEF83F097
:10079000CCEF83F0E5EF83F024C02FF02F3A0F0E5B
:1007A0002F162FA0D6EF83F0D8EF83F0E5EF83F07C
:1007B00025C02FF02F3A0F0E2F162FA0E2EF83F057
:1007C000E4EF83F0E5EF83F0259424A0EAEF83F0D3
:1007D000ECEF83F014EF84F025A0F1EF83F0F3EF5A
:1007E00083F014EF84F024C02FF0050E306ED89003
:1007F0002F32302EF7EF83F02FA001EF84F003EFBC
:1008000084F014EF84F025C02FF0050E306ED890E0
:100810002F32302E07EF84F02FA011EF84F013EF6A
:1008200084F014EF84F02592AAEC8FF012000001FE
:10083000C96B24A01EEF84F020EF84F029EF84F030
:1008400025A025EF84F027EF84F029EF84F0010E36
:10085000C96FC951D8A42FEF84F032EF84F0010E94
:1008600033EF84F0000EC66F010ECA6F24C040F053
:10087000403A0F0E401640A040EF84F042EF84F063
:1008800052EF84F025C040F0050E416ED890403202
:10089000412E46EF84F040B050EF84F052EF84F0E8
:1008A0006FEF84F024C040F0050E416ED8904032C6
:1008B000412E56EF84F040A060EF84F062EF84F0A8
:1008C0006EEF84F025C040F0403A0F0E401640B065
:1008D0006CEF84F06EEF84F06FEF84F0CA6BCA5156
:1008E000D8A475EF84F078EF84F0010E79EF84F0EE
:1008F000000EC76FCB6B24C040F0060E416ED8903F
:100900004032412E7FEF84F040A089EF84F08BEFDE
:1009100084F09DEF84F025C040F0060E416ED89023
:100920004032412E8FEF84F040A099EF84F09BEF8E
:1009300084F09DEF84F0010ECB6FCB51D8A4A3EFD0
:1009400084F0A6EF84F0010EA7EF84F0000EC86FCC
:10095000CC6BC651D8B4AFEF84F0B1EF84F0C3EFE5
:1009600084F0C751D8B4B7EF84F0B9EF84F0C3EF87
:1009700084F0C851D8B4BFEF84F0C1EF84F0C3EF66
:1009800084F0010ECC6FCC5112002B6A24A0CBEF67
:1009900084F0CDEF84F0D6EF84F025A0D2EF84F080
:1009A000D4EF84F0D6EF84F0010E2B6E2B50D8A438
:1009B000DCEF84F0DFEF84F0010EE0EF84F0000E56
:1009C000286E010E2C6E24C026F0263A0F0E261635
:1009D00026A0EDEF84F0EFEF84F0FFEF84F025C068
:1009E00026F0050E276ED8902632272EF3EF84F0DE
:1009F00026B0FDEF84F0FFEF84F01CEF85F024C0FB
:100A000026F0050E276ED8902632272E03EF85F0AC
:100A100026A00DEF85F00FEF85F01BEF85F025C0C8
:100A200026F0263A0F0E261626B019EF85F01BEF9A
:100A300085F01CEF85F02C6A2C50D8A422EF85F0AD
:100A400025EF85F0010E26EF85F0000E296E2D6A48
:100A500024C026F0060E276ED8902632272E2CEFC3
:100A600085F026A036EF85F038EF85F04AEF85F067
:100A700025C026F0060E276ED8902632272E3CEF92
:100A800085F026A046EF85F048EF85F04AEF85F027
:100A9000010E2D6E2D50D8A450EF85F053EF85F048
:100AA000010E54EF85F0000E2A6E2E6A2850D8B43D
:100AB0005CEF85F05EEF85F070EF85F02950D8B4DB
:100AC00064EF85F066EF85F070EF85F02A50D8B4BA
:100AD0006CEF85F06EEF85F070EF85F0010E2E6EF5
:100AE0002E501200C4EC8FF0A30E0001DE6F570EE3
:100AF000DD6F020EE82EFED7DD2FFCD7DE2FFAD7F2
:100B00000000720E406E170E416E010E426EC40E52
:100B1000F66EFF0EF76E000EF86E02D89DEF85F0B0
:100B20000500FA6E0900F550FD6E0900F550FE6EE5
:100B30000900F550FF6EFA5012001E0E406E150EA1
:100B4000416E010E426E340EF66EFF0EF76E000E11
:100B5000F86E02D8B9EF85F00500FA6E0900F5507D
:100B6000FD6E0900F550FE6E0900F550FF6EFA505B
:100B70001200CC0E406E180E416E010E426E820EB7
:100B8000F66EFF0EF76E000EF86E02D8D5EF85F008
:100B90000500FA6E0900F550FD6E0900F550FE6E75
:100BA0000900F550FF6EFA501200680E406E230ED9
:100BB000416E010E426E610EF66EFF0EF76E000E74
:100BC000F86E02D8F1EF85F00500FA6E0900F550D5
:100BD000FD6E0900F550FE6E0900F550FF6EFA50EB
:100BE000120084848590F28EF28C0F50D8B4FBEF03
:100BF00085F0FDEF85F013EF86F082BE02EF86F000
:100C000005EF86F0010E06EF86F0000EFF0A0001E8
:100C1000DD6FDD33DD338250DD197F0BDD19826E30
:100C20000F6A36EC87F041EC90F0CAEC88F0F5EFF3
:100C300085F0EFEF00F00001C96B24A022EF86F0F1
:100C400024EF86F02DEF86F025A029EF86F02BEF1C
:100C500086F02DEF86F0010EC96FC951D8A433EF8D
:100C600086F036EF86F0010E37EF86F0000EC66F85
:100C7000010ECA6F24C040F0403A0F0E401640A04B
:100C800044EF86F046EF86F052EF86F025C040F044
:100C9000403A0F0E401640B050EF86F052EF86F00B
:100CA00073EF86F024C040F0050E416ED8904032BC
:100CB000412E56EF86F040A060EF86F062EF86F09E
:100CC00072EF86F025C040F0050E416ED89040329C
:100CD000412E66EF86F040B070EF86F072EF86F03E
:100CE00073EF86F0CA6BCA51D8A479EF86F07CEF17
:100CF00086F0010E7DEF86F0000EC76F406A25AECC
:100D000001D0402A40B087EF86F08AEF86F0010ECE
:100D10008BEF86F0000EC86FCB6BC651D8B493EF43
:100D200086F095EF86F0A7EF86F0C751D8B49BEF19
:100D300086F09DEF86F0A7EF86F0C851D8B4A3EFF8
:100D400086F0A5EF86F0A7EF86F0010ECB6FCB51B2
:100D500012002B6A24A0AFEF86F0B1EF86F0BAEF55
:100D600086F025A0B6EF86F0B8EF86F0BAEF86F0F1
:100D7000010E2B6E2B50D8A4C0EF86F0C3EF86F087
:100D8000010EC4EF86F0000E286E010E2C6E24C0FA
:100D900026F0263A0F0E261626A0D1EF86F0D3EFC6
:100DA00086F0DFEF86F025C026F0263A0F0E2616D5
:100DB00026B0DDEF86F0DFEF86F000EF87F024C08D
:100DC00026F0050E276ED8902632272EE3EF86F008
:100DD00026A0EDEF86F0EFEF86F0FFEF86F025C05E
:100DE00026F0050E276ED8902632272EF3EF86F0D8
:100DF00026B0FDEF86F0FFEF86F000EF87F02C6A5B
:100E00002C50D8A406EF87F009EF87F0010E0AEF07
:100E100087F0000E296E266A25AE01D0262A26B05C
:100E200014EF87F017EF87F0010E18EF87F0000E30
:100E30002A6E2D6A2850D8B420EF87F022EF87F071
:100E400034EF87F02950D8B428EF87F02AEF87F0E5
:100E500034EF87F02A50D8B430EF87F032EF87F0C4
:100E600034EF87F0010E2D6E2D5012000001CF6B74
:100E700024AE01D0CF2BCFA140EF87F042EF87F017
:100E800074EF87F0258E690E435CBF0E4458D8A0DE
:100E90004CEF87F04EEF87F052EF87F0030E446E71
:100EA0000C0E436E580E435C980E4458D8B05BEF5E
:100EB00087F05DEF87F069EF87F00C0E4326030E95
:100EC000442243C041F044C042F0C2EC89F0BCEF80
:100ED00087F0249E259E25902598259A010E126E56
:100EE00000EC80F0BCEF87F024C0CFF0060ED06F8E
:100EF000D890CF33D02F78EF87F0CFA182EF87F053
:100F000084EF87F0AFEF87F0258C590E435C980E85
:100F10004458D8A08EEF87F090EF87F094EF87F0D9
:100F2000980E446E580E436E0D0E435C030E4458EB
:100F3000D8A09DEF87F09FEF87F0A5EF87F00C0E0C
:100F4000435E030E445A61EF87F0249C259C030EF8
:100F5000426E0C0E416EC2EC89F070EF87F024A057
:100F6000B4EF87F0B6EF87F0BCEF87F0060E426E65
:100F7000400E416EC2EC89F04550D2EC8CF012006C
:100F80001D50020DF350800FD96EDA6ADE6ADD6AF9
:100F90009CA2CDEF87F0CFEF87F0EEEF87F01D50EA
:100FA000020DF350800FD96EDA6ADF840001A05180
:100FB000A111A211D8B4DFEF87F0E1EF87F0EEEFD7
:100FC00087F002D8EEEF87F00500FA6EA051FD6EB3
:100FD000A151FE6EA251FF6EFA5012009CA4F3EFD5
:100FE00087F0F5EF87F014EF88F01D50020DF350F5
:100FF000800FD96EDA6ADF820001A351A411A51116
:10100000D8B405EF88F007EF88F014EF88F002D825
:1010100014EF88F00500FA6EA351FD6EA451FE6E28
:10102000A551FF6EFA50120098CF34F01D28070B1F
:10103000356E1C503518D8A420EF88F022EF88F0C8
:1010400024EF88F02DEF88F01D50900FD96EDA6AEA
:1010500034C0DFFF35C01DF01B2A0001A651A711C7
:10106000A811D8B436EF88F038EF88F045EF88F053
:1010700002D845EF88F00500FA6EA651FD6EA75123
:10108000FE6EA851FF6EFA5012001200176A266A0F
:1010900025AE01D0262A26A050EF88F052EF88F026
:1010A00076EF88F025C026F0263A0F0E261626A0E9
:1010B0005CEF88F05EEF88F062EF88F0010E176E4B
:1010C00096EF88F025C026F0050E276ED8902632C0
:1010D000272E66EF88F026A070EF88F072EF88F078
:1010E00096EF88F0020E176E96EF88F024C026F077
:1010F000263A0F0E261626A080EF88F082EF88F0A1
:1011000084EF88F05EEF88F024C026F0050E276E8D
:10111000D8902632272E88EF88F026A092EF88F00C
:1011200094EF88F096EF88F072EF88F01704D8A457
:101130009CEF88F09EEF88F0BAEF88F02580258834
:10114000259A85866D0EF66EFF0EF76E000EF86E10
:1011500002D8B8EF88F00500FA6E0900F550FD6E70
:101160000900F550FE6E0900F550FF6EFA501200AE
:10117000C9EF88F0020E1718D8A4C1EF88F0C3EFAA
:1011800088F0C9EF88F02580258A25988584A2EF0C
:1011900088F0120025C040F0060E416ED890403213
:1011A000412ECEEF88F040B0D8EF88F0DAEF88F02B
:1011B000EAEF88F025C040F0060E416ED89040322C
:1011C000412EDEEF88F040A0E8EF88F0EAEF88F0EB
:1011D000EDEF88F0458AEEEF88F0459A25C040F0A3
:1011E000D8904032D890403240A0F9EF88F0FBEF21
:1011F00088F0FEEF88F04588FFEF88F0459825C01D
:1012000040F0D890403240A008EF89F00AEF89F012
:101210000DEF89F045860EEF89F0459625C040F028
:10122000403A0F0E401640A018EF89F01AEF89F0EF
:101230001DEF89F045841EEF89F0459425C040F0EC
:10124000050E416ED8904032412E22EF89F040A029
:101250002CEF89F02EEF89F031EF89F0458232EFE3
:1012600089F0459225C040F0D8904032D890403265
:10127000D890403240A03FEF89F041EF89F044EF31
:1012800089F0458045EF89F04590120025C026F091
:10129000060E276ED8902632272E4AEF89F026B008
:1012A00054EF89F056EF89F066EF89F025C026F0FB
:1012B000060E276ED8902632272E5AEF89F026A0E8
:1012C00064EF89F066EF89F069EF89F0458A6AEF8B
:1012D00089F0459A25C026F0D8902632D89026323B
:1012E00026A075EF89F077EF89F07AEF89F04588CD
:1012F0007BEF89F0459825C026F0D890263226A0AD
:1013000084EF89F086EF89F089EF89F045868AEFCE
:1013100089F0459625C026F0263A0F0E261626A0FF
:1013200094EF89F096EF89F099EF89F045849AEF70
:1013300089F0459425C026F0050E276ED8902632F8
:10134000272E9EEF89F026A0A8EF89F0AAEF89F05A
:10135000ADEF89F04582AEEF89F0459225C026F0C9
:10136000D8902632D8902632D890263226A0BBEFCD
:1013700089F0BDEF89F0C0EF89F04580C1EF89F0B9
:101380004590120041504210D8B4C9EF89F0CBEF1C
:1013900089F0D1EF89F041C0CAF042C0CBF0D5EF5F
:1013A00089F00001CB6B010ECA6F910EF66EFF0E35
:1013B000F76E000EF86E02D8EBEF89F00500FA6EBA
:1013C0000900F550FD6E0900F550FE6E0900F5505C
:1013D000FF6EFA501200000E0001C66F000EC76FBC
:1013E000000EC86F000EC96F9D0EF66EFF0EF76EF1
:1013F000000EF86E02D80AEF8AF00500FA6E0900B6
:10140000F550FD6E0900F550FE6E0900F550FF6EB7
:10141000FA5012000001CB51A66ECAC0A5FF0E0102
:10142000CB93C3838E0EF66EFF0EF76E000EF86E32
:1014300002D828EF8AF00500FA6E0900F550FD6E1B
:101440000900F550FE6E0900F550FF6EFA501200CB
:1014500012000001C851C911D8B431EF8AF033EF3E
:101460008AF03CEF8AF0C851C911D8A43AEF8AF04B
:101470003CEF8AF041EF8AF0C651DAEC90F08EEF43
:101480008AF020EE09F0C851D926C951DA22DE507F
:10149000DE10D8B44EEF8AF050EF8AF06BEF8AF08E
:1014A00020EE09F0C851D926C951DA2210EE02F017
:1014B000C851E126C951E222DE50E65CE650800ABE
:1014C000CE6FDE50800ACE59D8B069EF8AF06BEF4C
:1014D0008AF08EEF8AF020EE02F0C851D926C95169
:1014E000DA22DECFCAF0DDCFCBF0C8C0D9FFC9C049
:1014F000DAFFDECFCCF0DDCFCDF0CA51CC25D96EEE
:10150000CB51CD21DA6EC6C0DFFF20EE02F0C8510C
:10151000D926C951DA22DE2A000EDD22120028EC7B
:1015200090F0326E3244E846030BE806D8B49BEFE5
:101530008AF09DEF8AF09FEF8AF0E6EF8AF014C000
:1015400013F032503F0B336E3F0E3318D8A4ABEF7D
:101550008AF0ADEF8AF0B1EF8AF03F0E146ED9EF4A
:101560008AF02A0E3318D8A4B8EF8AF0BAEF8AF0BE
:10157000BEEF8AF02A0E146ED9EF8AF0150E3318DA
:10158000D8A4C5EF8AF0C7EF8AF0CBEF8AF0150E2A
:10159000146ED9EF8AF0380E3318D8A4D2EF8AF03F
:1015A000D4EF8AF0E6EF8AF0640E05EC8DF0E6EFFA
:1015B0008AF014501318D8A4E0EF8AF0E2EF8AF012
:1015C000E4EF8AF0E6EF8AF037EC8BF01200826AE3
:1015D000836A846A856A866A0F010A6B126B1A6BCA
:1015E0001F6B276B0B0E876EDF0E886EBB0E896E2E
:1015F000F00E8A6E070E8B6E0F0E0C6FCF0E146FEF
:10160000190E1C6FF00E216F070E296F0B6B136BF9
:10161000020E1B6F206B286B0969116919691E691D
:10162000070E266F0869106918691D690F0E256F6E
:10163000170E0E01B06F090EF86F0F01076B066BE6
:10164000056B0F6B0E6B0D6B020E176F020E166F94
:10165000156B246B236B226B000E406E000E416EE7
:10166000000E426E82EC91F00E01BD8912003F0E19
:101670001418D8A43EEF8BF040EF8BF043EF8BF0C3
:1016800024902498249A2A0E1418D8A44AEF8BF098
:101690004CEF8BF05AEF8BF025C031F0D8903132FF
:1016A00031B055EF8BF057EF8BF05AEF8BF0248071
:1016B0002488249A150E1418D8A461EF8BF063EFD8
:1016C0008BF073EF8BF025C031F0D8903132D89089
:1016D000313231B06EEF8BF070EF8BF073EF8BF037
:1016E0002480248A2498455005EC8DF00EEC82F07D
:1016F00012000001D151D96EDA6ADECFF6FFDDCFDC
:10170000F7FF000EF86E0800F550250AD8A48BEFFD
:101710008BF08DEF8BF0A3EF8BF0D151D96EDA6A9D
:10172000DE2A000EDD22B96B000EB86FB8C00CF0D7
:10173000BA69BB690001D151D96EDA6ADE2A000E9E
:10174000DD22B8EF8BF0D151D96EDA6ADECFF6FF29
:10175000DDCFF7FF000EF86E0800F550C66FC76BBF
:10176000CFC0C8F0D0C0C9F029EC8AF09AEF8BF056
:10177000120023C033F00E50335C326E33C00EF0D3
:10178000040E3264C6EF8BF0C8EF8BF0CCEF8BF019
:101790002586828CCEEF8BF02596829C25C031F079
:1017A000D8903132D8903132D890313231B0DBEF2D
:1017B0008BF0DEEF8BF0010EDFEF8BF0000E346E5E
:1017C00034500D18D8B4E7EF8BF0E9EF8BF0F2EF5F
:1017D0008BF034C00DF00EEC82F046EC89F04550F1
:1017E00005EC8DF012000E01C393CB93910EF66EB3
:1017F000FF0EF76E000EF86E02D80CEF8CF00500AD
:10180000FA6E0900F550FD6E0900F550FE6E0900F4
:10181000F550FF6EFA501200000E266E000E276E75
:10182000000E286E000E296E9D0EF66EFF0EF76EEE
:10183000000EF86E02D82AEF8CF00500FA6E09004F
:10184000F550FD6E0900F550FE6E0900F550FF6E73
:10185000FA50120046EC88F012000E01C09B800E78
:101860000001EB6F0F0EEC6F010EED6F0E01C099D2
:101870001E0E0001EE6F200EEF6F010EF06F480E8E
:101880009E6E900E9C6E260E9D6E270E9A6E9B6A23
:10189000A40E406E230E416E010E426E64EC90F079
:1018A000700E406E230E416E010E426E53EC90F0AE
:1018B0000001BD6B000EBC6F206A1F6A080E1E6E11
:1018C0001D6A1C6A1B6A0E01C08B120085968594E6
:1018D000700EF66EFF0EF76E000EF86E02D87EEFF9
:1018E0008CF00500FA6E0900F550FD6E0900F55008
:1018F000FE6E0900F550FF6EFA501200FF0E266EC4
:10190000EB0E276E000E286E000E296E7C0EF66E12
:10191000FF0EF76E000EF86E02D89CEF8CF00500FB
:10192000FA6E0900F550FD6E0900F550FE6E0900D3
:10193000F550FF6EFA50120012008ECF32F0BB0E3F
:10194000F66EFF0EF76E000EF86E02D8B5EF8CF053
:101950000500FA6E0900F550FD6E0900F550FE6EA7
:101960000900F550FF6EFA50120026C033F027C070
:1019700034F00A50335C306E0B503458316EB80E70
:10198000305C0B0E3158D8A0C8EF8CF0CAEF8CF049
:10199000CFEF8CF0232A33C00AF034C00BF00F01D4
:1019A000159312000001C86F070E0001CC6FCCC068
:1019B000C6F0C8C0C7F0C62BE0EF8CF0D890C73394
:1019C000C62FDEEF8CF00001C751010BC96FC95162
:1019D000D8A4EDEF8CF0EFEF8CF0F4EF8CF0CB6B44
:1019E000300ECA6FF7EF8CF0CB6B310ECA6FCAC0E6
:1019F00040F060EC8DF00001CC07CCBF04EF8DF01F
:101A000002EF8DF0D7EF8CF012002A6E070E2E6ECB
:101A10002EC028F02AC029F0282A11EF8DF0D89086
:101A20002932282E0FEF8DF02950010B2D6E2D50ED
:101A3000D8A41DEF8DF01FEF8DF024EF8DF02C6AF0
:101A4000300E2B6E27EF8DF02C6A310E2B6E2BC0D3
:101A500026F0B1EC8EF02E062EBE33EF8DF031EF76
:101A60008DF008EF8DF01200990EF66E230EF76ED2
:101A7000010EF86E0900F5CFF4F00900F5CFF5F08E
:101A8000960EF66E230EF76E010EF86E0900F5CF76
:101A900043F00900F5CF44F00900F5CF45F000EE22
:101AA00060F0660EEE6AE806FDE100EE02F0240E3C
:101AB000EE6AE806FDE101900192000172EF85F007
:101AC00001A265EF8DF0B1EF8EF00E01C0B96BEFA2
:101AD0008DF06DEF8DF071EF8DF040C099FF86EFC6
:101AE0008DF01E50D8B477EF8DF079EF8DF086EF42
:101AF0008DF02050980FD96EDA6A40C0DFFF2028A1
:101B0000070B416E41C020F0C0991E06C08912002B
:101B100001A28DEF8DF0D4EF8EF0C8A492EF8DF07E
:101B200094EF8DF0AAEF8DF0C8B099EF8DF09CEF97
:101B30008DF0010E9DEF8DF0000E406EC890C7C075
:101B4000C7FFC6C0C6FF40B002D0C89001D0C88051
:101B5000AEEF8DF0C7C0C7FFC6C0C6FF120001A21E
:101B6000B4EF8DF0F6EF8EF0CEA4B9EF8DF0BBEFB1
:101B70008DF0D1EF8DF0CEB0C0EF8DF0C3EF8DF0D2
:101B8000010EC4EF8DF0000E406ECE90C7C0CDFFA9
:101B9000C6C0CCFF40B002D0CE9001D0CE80D5EFF1
:101BA0008DF0C7C0CDFFC6C0CCFF120001A2DBEF95
:101BB0008DF018EF8FF0C2A4E0EF8DF0E2EF8DF022
:101BC000F8EF8DF0C2B0E7EF8DF0EAEF8DF0010E87
:101BD000EBEF8DF0000E406EC290C7C0C1FFC6C0D3
:101BE000C0FF40B002D0C29001D0C280FCEF8DF0A7
:101BF000C7C0C1FFC6C0C0FF1200D5C0D8F0D6C054
:101C0000D9F00EEF8EF0D3C0CFF0D4C0D0F0D80E04
:101C10000001D16FD7C0D2F079EC8BF0D8C0F6FFBD
:101C2000D9C0F7FF000EF86E0800F5500009D8A4DF
:101C30001CEF8EF01EEF8EF003EF8EF00001D46BE0
:101C4000000ED36F120002C026F003C027F0286AEE
:101C5000296A18EC8FF0C2900001DF51E011E11108
:101C6000D8B435EF8EF037EF8EF044EF8EF002D817
:101C700044EF8EF00500FA6EDF51FD6EE051FE6E0E
:101C8000E151FF6EFA5012000E01C9991200C8907E
:101C900004C026F005C027F0286A296AD4EC8EF02B
:101CA0000001E251E311E411D8B459EF8EF05BEF7B
:101CB0008EF068EF8EF002D868EF8EF00500FA6EB5
:101CC000E251FD6EE351FE6EE451FF6EFA501200D8
:101CD0000E01C9951200F29A0E01C591F280000E14
:101CE000406E000E416E000E426E97EC91F00E01B8
:101CF000C593F282000E406E000E416E000E426EE1
:101D000090EC91F00E01C595F284000E406E000E2D
:101D1000416E000E426E89EC91F0120006C026F072
:101D200007C027F0286A296AF6EC8EF00001E55119
:101D3000E611E711D8B49FEF8EF0A1EF8EF0AEEF71
:101D40008EF002D8AEEF8EF00500FA6EE551FD6E12
:101D5000E651FE6EE751FF6EFA5012000E01C99176
:101D600012000E01C0B9B7EF8EF0B9EF8EF0BDEFE3
:101D70008EF026C099FFD2EF8EF01E50D8B4C3EF7C
:101D80008EF0C5EF8EF0D2EF8EF02050980FD96E06
:101D9000DA6A26C0DFFF2028070B276E27C020F055
:101DA000C0991E06C0891200C8A4D9EF8EF0DBEFDF
:101DB0008EF0F1EF8EF0C8B0E0EF8EF0E3EF8EF032
:101DC000010EE4EF8EF0000E2A6EC89027C0C7FF08
:101DD00026C0C6FF2AB002D0C89001D0C880F5EF57
:101DE0008EF027C0C7FF26C0C6FF1200CEA4FBEFAF
:101DF0008EF0FDEF8EF013EF8FF0CEB002EF8FF08C
:101E000005EF8FF0010E06EF8FF0000E2A6ECE90D8
:101E100027C0CDFF26C0CCFF2AB002D0CE9001D083
:101E2000CE8017EF8FF027C0CDFF26C0CCFF120069
:101E3000C2A41DEF8FF01FEF8FF035EF8FF0C2B00F
:101E400024EF8FF027EF8FF0010E28EF8FF0000EB8
:101E50002A6EC29027C0C1FF26C0C0FF2AB002D0A0
:101E6000C29001D0C28039EF8FF027C0C1FF26C0D9
:101E7000C0FF12000950D36E08C0D2FF0001E85124
:101E8000E911EA11D8B447EF8FF049EF8FF056EF20
:101E90008FF002D856EF8FF00500FA6EE851FD6E14
:101EA000E951FE6EEA51FF6EFA5012000E01C59B19
:101EB0001200C290C36AC46A030EC56EA20EC16E40
:101EC0003F0EC06EC150406EC050026E40C003F065
:101ED000A20E0001DF6F230EE06F010EE16F0E0115
:101EE000C999C189360EC26E1200C890C96ACA6A01
:101EF000030ECB6EEB0EC76EC668C750406EC65061
:101F0000046E40C005F09C0E0001E26F230EE36FEB
:101F1000010EE46F0E01C995C185040EC86E120052
:101F200025C040F0D890403240A099EF8FF09BEF51
:101F30008FF0A9EF8FF025C040F0D8904032D890B4
:101F4000403240A0A6EF8FF0A8EF8FF0A9EF8FF0FE
:101F50001A80120025C026F0D890263226A0B3EFB2
:101F60008FF0B5EF8FF0C3EF8FF025C026F0D8903B
:101F70002632D890263226A0C0EF8FF0C2EF8FF025
:101F8000C3EF8FF01A80120025EC91F0E7EC8AF095
:101F9000F9EC90F0F6EC8FF0DDEC8FF075EC8FF053
:101FA00059EC8FF0EAEC90F0A5EC91F02DEC8CF070
:101FB000B0EC91F06BEC8EF01200CE90CF6AD06A4C
:101FC000010ED16ECD68CC68CD50406ECC50066EFF
:101FD00040C007F09E0E0001E56F230EE66F010E74
:101FE000E76F0E01C991220ECE6E12003C0ED36E29
:101FF000B00ED26E770ED56ED350406ED250086EB2
:1020000040C009F0A00E0001E86F230EE96F010E39
:10201000EA6F0E01C59BBD8B900ED46E1200080EA8
:102020001E6015EF90F017EF90F025EF90F01F5025
:10203000980FD96EDA6ADF50996E1F28070B266E4B
:1020400026C01FF01E2A27EF90F00E01C099120043
:102050001C50900FD96EDA6ADF50276E1C28070BD0
:10206000266E26C01CF00E01C09B1B50D8B43BEF5F
:1020700090F03DEF90F03EEF90F01B06C08B2750A4
:1020800012001AA046EF90F048EF90F052EF90F057
:10209000E70E0001DA6FFF0EDB6FCAEC90F01A90CA
:1020A000259425921200405041104210D8B45BEFA5
:1020B00090F05DEF90F063EF90F040C0A0F041C071
:1020C000A1F042C0A2F01200405041104210D8B41A
:1020D0006CEF90F06EEF90F074EF90F040C0A3F0D2
:1020E00041C0A4F042C0A5F012004050411042107F
:1020F000D8B47DEF90F07FEF90F085EF90F040C086
:10210000A6F041C0A7F042C0A8F01200C6CF2FF041
:10211000C7CF2EF02E502A6E2F502C6E2AC02DF0D5
:102120002CC026F02DC027F0286A296A1200CCCFD7
:102130002FF0CDCF2EF02E502A6E2F502C6E2AC0AD
:102140002DF02CC026F02DC027F0286A296A120035
:10215000D2CF2EF0D3CF2FF02F502A6E2E502C6ED0
:102160002AC02DF02CC026F02DC027F0286A296A3D
:102170001200C0CF2FF0C1CF2EF02E502A6E2F505C
:102180002C6E2AC02DF02CC026F02DC027F0286A16
:10219000296A1200DC0E0001DC6F000ED36F000E06
:1021A000D46FDAC0D5F0DBC0D6F0DC0ED76FFDEC13
:1021B0008DF01200426E05EC91F00009D8B4E3EF07
:1021C00090F0E5EF90F0DBEF90F042C040F060EC73
:1021D0008DF012000E01BF91820E0F01346F030EBD
:1021E000356F010E366F010E376F0E01C791BF813B
:1021F00012008A0EA76EA66AA56AAD50F30B0409F9
:10220000AD6E0E01CB93C38312001E50D8A40BEF0A
:1022100091F00EEF91F0010E0FEF91F0000E120011
:102220000F0115A316EF91F018EF91F01AEF91F04E
:102230009DEC8CF0120001A220EF91F0ABEF91F039
:10224000C7C0D3FFC6C0D2FF1200600E0E01D36F0D
:10225000D56BD76B080ED96FD86B120001A233EF84
:1022600091F0BBEF91F0C890120001A23AEF91F00B
:10227000BDEF91F0CE90120001A241EF91F0BFEFBF
:1022800091F0D49E120001A248EF91F0C1EF91F0BD
:10229000C290120001A24FEF91F0C3EF91F0C880FD
:1022A000120001A256EF91F0C5EF91F0CE8012001E
:1022B00001A25DEF91F0C7EF91F0D48E120001A260
:1022C00064EF91F0C9EF91F0C280120040C0E2F0DB
:1022D00041C0E3F042C0E4F0120040C0E5F041C06C
:1022E000E6F042C0E7F0120040C0E8F041C0E9F07B
:1022F00042C0EAF0120040C0DFF041C0E0F042C04E
:10230000E1F0120040C0F1F041C0F2F042C0F3F041
:10231000120040C0ACF041C0ADF042C0AEF01200BF
:1023200040C0AFF041C0B0F042C0B1F0120040C0B8
:10233000B2F041C0B3F042C0B4F012000E01C79138
:10234000010E0F6EBF91C2801200A80E0F012E6FFA
:10235000130E2F6F120027C0D3FF26C0D2FF12002A
:102360008C0E0F012C6F12000E01C791BF8112005D
:102370009C989C881200C8901200CE901200D49EA7
:102380001200C2901200C8801200CE801200D48EBB
:0B2390001200C28012005898400C039D
:0A239C0012001200120012001200DD
:020000040030CA
:0C0000008CFFFFFF9FFFFFFFFFFFFFFFD3
:00000001FF
